:020000040000FA
:1000000083160313FF3085008316031300309F000F
:100010008316031386018701831203138601870168
:10002000A301A4014D205420142883120313293066
:100030009F001F151F191A28831203131E08A700FB
:1000400022201528A801B001A9016430A702031CD1
:100050002B28A80A25286430A7070A30A702031C0A
:100060003328A90A2D280A30A7072708B0008030B6
:100070006920831203132808303E712081306920E3
:10008000831203132908303E7120823069208312C5
:1000900003133008303E71200800023069203830E8
:1000A00069200C306920080083120313230879208B
:1000B0007120A30A2308073C031D5428C03069207F
:1000C000240882207120A40A2408053C031D60280E
:1000D00008008312031387000612061789200613EF
:1000E00008008312031387000616061789200613DB
:1000F0000800820749344234523441344834493488
:100100004D3408008207443455345934473455344B
:100110000800FF30A500FF30A600A60B8D28A50B18
:040120008B28080020
:02400E00313F40
:00000001FF
