:020000040000FA
:020000001728BF
:08000800831203130C1C090014
:10001000A30A23082402031D0F28A301860A8312C2
:1000200003133C308F00B0308E000C100900831693
:1000300006309F00CF3085008316031386018701A9
:1000400083120313A3018601850187010A30A400EE
:100050008312031311309000831203133C308F007E
:10006000B0308E00831203130C10831603130C148C
:100070008B170B1705183F28851847283A28A30126
:10008000240887002408241A3A28A40A5328A30124
:100090002408870005302402031851280530A400E5
:1000A0003A28A4035628051C3A285328851C3A28C8
:0200B0005628D0
:02400E00313F40
:00000001FF
