:020000040000FA
:020000004C288A
:08000800831203138C10831214
:100010000313A30A23087D3C031D0900A301A403C5
:10002000A701A8012408FF3C031D2B283C30A40095
:10003000A503A901AA012508FF3C031D36283B3072
:10004000A5003620A603AB01AC012608183C031D11
:100050004128A60109002408A700A80A0A30A7021F
:1000600003182D280A30A707A80309002508A900AE
:10007000AA0A0A30A902031838280A30A907AA03D5
:1000800009002608AB00AC0A0A30AB02031843286B
:100090000A30AB07AC0309008316031386018701FE
:1000A00088018312031386010A30A4000530A500DD
:1000B0001430A6002408A700A80A0A30A7020318D3
:1000C0005C280A30A707A8032508A900AA0A0A3055
:1000D000A902031866280A30A907AA032608AB005C
:1000E000AC0A0A30AB02031870280A30AB07AC0325
:1000F000831203130F30920083160313FA30920019
:10010000831203138B170B17831603138C14AB2066
:100110008A2087284B30BC204130BC205230BC2084
:100120004130BC20C030B42030302C07BC203030EF
:100130002B07BC203A30BC2030302A07BC2030309E
:100140002907BC203A30BC2030302807BC20303092
:100150002707BC2008000230B4203830B4200C300F
:10016000B4208530B42008008312031387000612E0
:100170000617D02006130800831203138700061603
:100180000617D02006130800820730343134323489
:100190003334343435343634373438343934080071
:1001A0006430A0005030A100A10BD428A00BD228AD
:0201B000080045
:00000001FF
