:020000040000FA
:10000000831603138601870102300F2038300F203A
:100010000C300F2080300F20831203131F2883120F
:1000200003138700061206174020061308008312E8
:100030000313870006160617402006130800200841
:1000400034201720A00A2008063C031D1F28C030BA
:100050000F2021083C201720A10A2108023C031D83
:10006000292833281F28332882074D344534483443
:100070004D34453454340800820741344B34080071
:10008000FF30A300FF30A400A40B4428A30B422898
:02009000080066
:02400E00313F40
:00000001FF
