:020000040000FA
:020000000428D2
:080008008316031306309F006C
:10001000CF3085008701831203138B170B178312D0
:10002000031312149210121583160313C730920093
:10003000831203130C3097003230950083120313A0
:100040000C309D0064309B0005182D20851835204C
:1000500005193D208519452024281508C83C031999
:100060000800053095074D2008001508003C0319CD
:100070000800053095024D2008001B08C83C0319F4
:10008000080005309B074D2008001B08003C0319A1
:10009000080005309B024D200800FF30A300FF3010
:0C00A000A400A40B5128A30B4F2808005B
:02400E00313F40
:00000001FF
