:020000040000FA
:10000000012883160313FF308500860187018801CC
:1000100083120313860187018801831603130030BE
:100020009F0002304D2038304D200C304D2083127F
:10003000031329309F001F151F191C288312031357
:100040001E0883120313A3008312031331309F0091
:100050001F151F192928831203131E088312031367
:10006000A4002308240203193828031846283F282F
:1000700080304D20453055205D201F1517288030D9
:100080004D204B3055205D201F15172880304D2006
:10009000423055205D201F15172883120313870057
:1000A000061206175D20061308008312031387004B
:1000B000061606175D2006130800FF30A500FF3066
:0C00C000A600A60B6128A50B5F28080015
:0400CC0000340034C8
:02400E00313F40
:00000001FF
