:020000040000FA
:020000001928BD
:080008000C1C09000C103C3037
:100010008F00B0308E00A30A2308053C031D0900A1
:10002000A301A40A24080A3C031D0900A50AA4018F
:1000300009008316031386018701831203138601C7
:10004000A3018312031310129016101483120313CA
:100050003C308F00B0308E00831203130C108316D7
:1000600003138B170B170C14831203130130870033
:100070002408432086004F200230870025084320B3
:1000800086004F20362882073F3406345B344F34D5
:1000900066346D347D3407347F346F340800643047
:0800A000A600A60B5128080080
:00000001FF
