:020000040000FA
:020000000528D1
:040002000034003492
:080008004E2083160313FF30A4
:100010008500860187018801831203138601870109
:1000200088018316031300309F00831203132930C5
:100030009F001F151F191A28831203131E0883120D
:100040000313A3008312031331309F001F151F19E0
:100050002728831203131E0883120313A40083129C
:100060000313230883120313860083120313240847
:10007000831203138700230824020319422803185C
:100080004A284628880188141F1515288801081455
:0C0090001F151528880108151F151528DC
:02400E00313F40
:00000001FF
