:020000040000FA
:020000001928BD
:080008000C1C09000C103C3037
:100010008F00B0308E00A50A2508053C031D09009D
:10002000A501A70A27080A3C031D0900A80AA70181
:1000300009008316031386018501831203138601C9
:10004000A501A701A8010130A800831203132130E4
:100050009000831203133C308F00B0308E00831267
:1000600003130C10831603138B170B170C14831236
:1000700003130230850027084F2086004A200130F4
:1000800085002808063C0319A80128084F2086008F
:100090004A203928FF30A600A60B4C28080082070A
:1000A0003F3406345B344F3466346D347D3407346A
:0600B0007F346F340800EC
:02400E00313F40
:00000001FF
