:020000040000FA
:08000800A401A501A601831665
:1000100003138601880183120313F630A3006430B2
:10002000A3020318142818282308A700A40A0F28DD
:100030000A30A70203181D2821282708A800A50AAE
:1000400018282808A60026202F202528023039202D
:10005000283039200C30392082303920080024081B
:10006000303E49202508303E49202608303E4920B0
:100070000800A900290E0F3988000610861459209F
:10008000861029080F39880006108614592086101A
:100090000800A900290E0F3988000614861459207B
:1000A000861029080F3988000614861459208610F6
:0C00B0000800FF30B000B00B5B28080017
:00000001FF
